{
  "_format": "hh-sol-artifact-1",
  "contractName": "TraitBasedNFT",
  "sourceName": "contracts/TraitBasedNFT.sol",
  "abi": [
    {
      "inputs": [],
      "stateMutability": "nonpayable",
      "type": "constructor"
    },
    {
      "inputs": [],
      "name": "NoContracts",
      "type": "error"
    },
    {
      "inputs": [],
      "name": "PreSaleNotActive",
      "type": "error"
    },
    {
      "inputs": [],
      "name": "PublicSaleNotActive",
      "type": "error"
    },
    {
      "anonymous": false,
      "inputs": [
        {
          "indexed": true,
          "internalType": "address",
          "name": "owner",
          "type": "address"
        },
        {
          "indexed": true,
          "internalType": "address",
          "name": "approved",
          "type": "address"
        },
        {
          "indexed": true,
          "internalType": "uint256",
          "name": "tokenId",
          "type": "uint256"
        }
      ],
      "name": "Approval",
      "type": "event"
    },
    {
      "anonymous": false,
      "inputs": [
        {
          "indexed": true,
          "internalType": "address",
          "name": "owner",
          "type": "address"
        },
        {
          "indexed": true,
          "internalType": "address",
          "name": "operator",
          "type": "address"
        },
        {
          "indexed": false,
          "internalType": "bool",
          "name": "approved",
          "type": "bool"
        }
      ],
      "name": "ApprovalForAll",
      "type": "event"
    },
    {
      "anonymous": false,
      "inputs": [
        {
          "indexed": true,
          "internalType": "address",
          "name": "previousOwner",
          "type": "address"
        },
        {
          "indexed": true,
          "internalType": "address",
          "name": "newOwner",
          "type": "address"
        }
      ],
      "name": "OwnershipTransferred",
      "type": "event"
    },
    {
      "anonymous": false,
      "inputs": [
        {
          "indexed": true,
          "internalType": "address",
          "name": "from",
          "type": "address"
        },
        {
          "indexed": true,
          "internalType": "address",
          "name": "to",
          "type": "address"
        },
        {
          "indexed": true,
          "internalType": "uint256",
          "name": "tokenId",
          "type": "uint256"
        }
      ],
      "name": "Transfer",
      "type": "event"
    },
    {
      "inputs": [],
      "name": "_baseTokenURI",
      "outputs": [
        {
          "internalType": "string",
          "name": "",
          "type": "string"
        }
      ],
      "stateMutability": "view",
      "type": "function"
    },
    {
      "inputs": [
        {
          "internalType": "address",
          "name": "to",
          "type": "address"
        },
        {
          "internalType": "uint256",
          "name": "tokenId",
          "type": "uint256"
        }
      ],
      "name": "approve",
      "outputs": [],
      "stateMutability": "nonpayable",
      "type": "function"
    },
    {
      "inputs": [
        {
          "internalType": "uint256",
          "name": "",
          "type": "uint256"
        }
      ],
      "name": "availableTokenIds",
      "outputs": [
        {
          "internalType": "uint256",
          "name": "",
          "type": "uint256"
        }
      ],
      "stateMutability": "view",
      "type": "function"
    },
    {
      "inputs": [
        {
          "internalType": "address",
          "name": "owner",
          "type": "address"
        }
      ],
      "name": "balanceOf",
      "outputs": [
        {
          "internalType": "uint256",
          "name": "",
          "type": "uint256"
        }
      ],
      "stateMutability": "view",
      "type": "function"
    },
    {
      "inputs": [],
      "name": "baseTokenUri",
      "outputs": [
        {
          "internalType": "string",
          "name": "",
          "type": "string"
        }
      ],
      "stateMutability": "view",
      "type": "function"
    },
    {
      "inputs": [
        {
          "internalType": "uint256",
          "name": "tokenId",
          "type": "uint256"
        }
      ],
      "name": "getApproved",
      "outputs": [
        {
          "internalType": "address",
          "name": "",
          "type": "address"
        }
      ],
      "stateMutability": "view",
      "type": "function"
    },
    {
      "inputs": [
        {
          "internalType": "uint256",
          "name": "trait",
          "type": "uint256"
        },
        {
          "internalType": "uint256",
          "name": "index",
          "type": "uint256"
        }
      ],
      "name": "getTraitTokenByIndex",
      "outputs": [
        {
          "internalType": "uint256",
          "name": "",
          "type": "uint256"
        }
      ],
      "stateMutability": "view",
      "type": "function"
    },
    {
      "inputs": [
        {
          "internalType": "uint256",
          "name": "trait",
          "type": "uint256"
        }
      ],
      "name": "getTraitTokenCount",
      "outputs": [
        {
          "internalType": "uint256",
          "name": "",
          "type": "uint256"
        }
      ],
      "stateMutability": "view",
      "type": "function"
    },
    {
      "inputs": [
        {
          "internalType": "address",
          "name": "owner",
          "type": "address"
        },
        {
          "internalType": "address",
          "name": "operator",
          "type": "address"
        }
      ],
      "name": "isApprovedForAll",
      "outputs": [
        {
          "internalType": "bool",
          "name": "",
          "type": "bool"
        }
      ],
      "stateMutability": "view",
      "type": "function"
    },
    {
      "inputs": [
        {
          "internalType": "address",
          "name": "_user",
          "type": "address"
        },
        {
          "internalType": "bytes32[]",
          "name": "_proof",
          "type": "bytes32[]"
        }
      ],
      "name": "isValid",
      "outputs": [
        {
          "internalType": "bool",
          "name": "",
          "type": "bool"
        }
      ],
      "stateMutability": "view",
      "type": "function"
    },
    {
      "inputs": [],
      "name": "maxMint",
      "outputs": [
        {
          "internalType": "uint256",
          "name": "",
          "type": "uint256"
        }
      ],
      "stateMutability": "view",
      "type": "function"
    },
    {
      "inputs": [],
      "name": "maxSupply",
      "outputs": [
        {
          "internalType": "uint256",
          "name": "",
          "type": "uint256"
        }
      ],
      "stateMutability": "view",
      "type": "function"
    },
    {
      "inputs": [
        {
          "internalType": "uint256",
          "name": "_trait",
          "type": "uint256"
        },
        {
          "internalType": "uint256",
          "name": "_quantity",
          "type": "uint256"
        },
        {
          "internalType": "bytes32[]",
          "name": "_proof",
          "type": "bytes32[]"
        }
      ],
      "name": "mintWithTraitOG",
      "outputs": [],
      "stateMutability": "payable",
      "type": "function"
    },
    {
      "inputs": [
        {
          "internalType": "uint256",
          "name": "_trait",
          "type": "uint256"
        },
        {
          "internalType": "uint256",
          "name": "_quantity",
          "type": "uint256"
        },
        {
          "internalType": "bytes32[]",
          "name": "_proof",
          "type": "bytes32[]"
        }
      ],
      "name": "mintWithTraitPresale",
      "outputs": [],
      "stateMutability": "payable",
      "type": "function"
    },
    {
      "inputs": [
        {
          "internalType": "uint256",
          "name": "_trait",
          "type": "uint256"
        },
        {
          "internalType": "uint256",
          "name": "_quantity",
          "type": "uint256"
        }
      ],
      "name": "mintWithTraitPublic",
      "outputs": [],
      "stateMutability": "payable",
      "type": "function"
    },
    {
      "inputs": [
        {
          "internalType": "uint256",
          "name": "",
          "type": "uint256"
        }
      ],
      "name": "mintedTokens",
      "outputs": [
        {
          "internalType": "bool",
          "name": "",
          "type": "bool"
        }
      ],
      "stateMutability": "view",
      "type": "function"
    },
    {
      "inputs": [],
      "name": "name",
      "outputs": [
        {
          "internalType": "string",
          "name": "",
          "type": "string"
        }
      ],
      "stateMutability": "view",
      "type": "function"
    },
    {
      "inputs": [],
      "name": "owner",
      "outputs": [
        {
          "internalType": "address",
          "name": "",
          "type": "address"
        }
      ],
      "stateMutability": "view",
      "type": "function"
    },
    {
      "inputs": [
        {
          "internalType": "uint256",
          "name": "tokenId",
          "type": "uint256"
        }
      ],
      "name": "ownerOf",
      "outputs": [
        {
          "internalType": "address",
          "name": "",
          "type": "address"
        }
      ],
      "stateMutability": "view",
      "type": "function"
    },
    {
      "inputs": [],
      "name": "presaleActive",
      "outputs": [
        {
          "internalType": "bool",
          "name": "",
          "type": "bool"
        }
      ],
      "stateMutability": "view",
      "type": "function"
    },
    {
      "inputs": [],
      "name": "presaleMerkleRoot",
      "outputs": [
        {
          "internalType": "bytes32",
          "name": "",
          "type": "bytes32"
        }
      ],
      "stateMutability": "view",
      "type": "function"
    },
    {
      "inputs": [],
      "name": "price_1",
      "outputs": [
        {
          "internalType": "uint256",
          "name": "",
          "type": "uint256"
        }
      ],
      "stateMutability": "view",
      "type": "function"
    },
    {
      "inputs": [],
      "name": "price_3",
      "outputs": [
        {
          "internalType": "uint256",
          "name": "",
          "type": "uint256"
        }
      ],
      "stateMutability": "view",
      "type": "function"
    },
    {
      "inputs": [],
      "name": "price_6",
      "outputs": [
        {
          "internalType": "uint256",
          "name": "",
          "type": "uint256"
        }
      ],
      "stateMutability": "view",
      "type": "function"
    },
    {
      "inputs": [],
      "name": "publicSaleActive",
      "outputs": [
        {
          "internalType": "bool",
          "name": "",
          "type": "bool"
        }
      ],
      "stateMutability": "view",
      "type": "function"
    },
    {
      "inputs": [],
      "name": "renounceOwnership",
      "outputs": [],
      "stateMutability": "nonpayable",
      "type": "function"
    },
    {
      "inputs": [
        {
          "internalType": "address",
          "name": "from",
          "type": "address"
        },
        {
          "internalType": "address",
          "name": "to",
          "type": "address"
        },
        {
          "internalType": "uint256",
          "name": "tokenId",
          "type": "uint256"
        }
      ],
      "name": "safeTransferFrom",
      "outputs": [],
      "stateMutability": "nonpayable",
      "type": "function"
    },
    {
      "inputs": [
        {
          "internalType": "address",
          "name": "from",
          "type": "address"
        },
        {
          "internalType": "address",
          "name": "to",
          "type": "address"
        },
        {
          "internalType": "uint256",
          "name": "tokenId",
          "type": "uint256"
        },
        {
          "internalType": "bytes",
          "name": "data",
          "type": "bytes"
        }
      ],
      "name": "safeTransferFrom",
      "outputs": [],
      "stateMutability": "nonpayable",
      "type": "function"
    },
    {
      "inputs": [
        {
          "internalType": "address",
          "name": "operator",
          "type": "address"
        },
        {
          "internalType": "bool",
          "name": "approved",
          "type": "bool"
        }
      ],
      "name": "setApprovalForAll",
      "outputs": [],
      "stateMutability": "nonpayable",
      "type": "function"
    },
    {
      "inputs": [
        {
          "internalType": "string",
          "name": "newBaseTokenURI",
          "type": "string"
        }
      ],
      "name": "setBaseTokenURI",
      "outputs": [],
      "stateMutability": "nonpayable",
      "type": "function"
    },
    {
      "inputs": [
        {
          "internalType": "bytes32",
          "name": "_presaleMerkleRoot",
          "type": "bytes32"
        }
      ],
      "name": "setPresaleMerkleRoot",
      "outputs": [],
      "stateMutability": "nonpayable",
      "type": "function"
    },
    {
      "inputs": [
        {
          "internalType": "uint256",
          "name": "_price_1",
          "type": "uint256"
        }
      ],
      "name": "setPrice_1",
      "outputs": [],
      "stateMutability": "nonpayable",
      "type": "function"
    },
    {
      "inputs": [
        {
          "internalType": "uint256",
          "name": "_price_3",
          "type": "uint256"
        }
      ],
      "name": "setPrice_3",
      "outputs": [],
      "stateMutability": "nonpayable",
      "type": "function"
    },
    {
      "inputs": [
        {
          "internalType": "uint256",
          "name": "_price_6",
          "type": "uint256"
        }
      ],
      "name": "setPrice_6",
      "outputs": [],
      "stateMutability": "nonpayable",
      "type": "function"
    },
    {
      "inputs": [
        {
          "internalType": "bytes4",
          "name": "interfaceId",
          "type": "bytes4"
        }
      ],
      "name": "supportsInterface",
      "outputs": [
        {
          "internalType": "bool",
          "name": "",
          "type": "bool"
        }
      ],
      "stateMutability": "view",
      "type": "function"
    },
    {
      "inputs": [],
      "name": "symbol",
      "outputs": [
        {
          "internalType": "string",
          "name": "",
          "type": "string"
        }
      ],
      "stateMutability": "view",
      "type": "function"
    },
    {
      "inputs": [],
      "name": "togglePresale",
      "outputs": [],
      "stateMutability": "nonpayable",
      "type": "function"
    },
    {
      "inputs": [],
      "name": "togglePublicSale",
      "outputs": [],
      "stateMutability": "nonpayable",
      "type": "function"
    },
    {
      "inputs": [
        {
          "internalType": "uint256",
          "name": "_tokenId",
          "type": "uint256"
        }
      ],
      "name": "tokenURI",
      "outputs": [
        {
          "internalType": "string",
          "name": "",
          "type": "string"
        }
      ],
      "stateMutability": "pure",
      "type": "function"
    },
    {
      "inputs": [
        {
          "internalType": "uint256",
          "name": "",
          "type": "uint256"
        }
      ],
      "name": "trait1",
      "outputs": [
        {
          "internalType": "uint256",
          "name": "",
          "type": "uint256"
        }
      ],
      "stateMutability": "view",
      "type": "function"
    },
    {
      "inputs": [
        {
          "internalType": "uint256",
          "name": "",
          "type": "uint256"
        }
      ],
      "name": "trait2",
      "outputs": [
        {
          "internalType": "uint256",
          "name": "",
          "type": "uint256"
        }
      ],
      "stateMutability": "view",
      "type": "function"
    },
    {
      "inputs": [
        {
          "internalType": "uint256",
          "name": "",
          "type": "uint256"
        }
      ],
      "name": "traitList",
      "outputs": [
        {
          "internalType": "uint256",
          "name": "",
          "type": "uint256"
        }
      ],
      "stateMutability": "view",
      "type": "function"
    },
    {
      "inputs": [
        {
          "internalType": "address",
          "name": "from",
          "type": "address"
        },
        {
          "internalType": "address",
          "name": "to",
          "type": "address"
        },
        {
          "internalType": "uint256",
          "name": "tokenId",
          "type": "uint256"
        }
      ],
      "name": "transferFrom",
      "outputs": [],
      "stateMutability": "nonpayable",
      "type": "function"
    },
    {
      "inputs": [
        {
          "internalType": "address",
          "name": "newOwner",
          "type": "address"
        }
      ],
      "name": "transferOwnership",
      "outputs": [],
      "stateMutability": "nonpayable",
      "type": "function"
    },
    {
      "inputs": [
        {
          "internalType": "address",
          "name": "",
          "type": "address"
        }
      ],
      "name": "userMintCount",
      "outputs": [
        {
          "internalType": "uint256",
          "name": "",
          "type": "uint256"
        }
      ],
      "stateMutability": "view",
      "type": "function"
    },
    {
      "inputs": [],
      "name": "withdraw",
      "outputs": [],
      "stateMutability": "nonpayable",
      "type": "function"
    }
  ],
  "bytecode": "0x60806040526007600e556006600f55662386f26fc1000060105566470de4df820000601155666a94d74f4300006012556040518060600160405280600160ff168152602001600660ff168152602001600e60ff1681525060159060036200006892919062000548565b506040518060600160405280600360ff168152602001601a60ff168152602001602160ff168152506016906003620000a292919062000548565b50348015620000b057600080fd5b506040518060400160405280600d81526020017f547261697442617365644e4654000000000000000000000000000000000000008152506040518060400160405280600481526020017f544e46540000000000000000000000000000000000000000000000000000000081525081600090816200012e919062000838565b50806001908162000140919062000838565b5050506200016362000157620003bb60201b60201c565b620003c360201b60201c565b604051806080016040528060598152602001620055e760599139600c90816200018d919062000838565b506000601b67ffffffffffffffff811115620001ae57620001ad620005c9565b5b604051908082528060200260200182016040528015620001dd5781602001602082028036833780820191505090505b50905060158054905081600081518110620001fd57620001fc6200091f565b5b602002602001018181525050601680549050816001815181106200022657620002256200091f565b5b60200260200101818152505060005b601580549050811015620002f2576009601582815481106200025c576200025b6200091f565b5b90600052602060002001549080600181540180825580915050600190039060005260206000200160009091909190915055620002db60158281548110620002a857620002a76200091f565b5b906000526020600020015460076000600181526020019081526020016000206200048960201b620021251790919060201c565b508080620002e9906200097d565b91505062000235565b5060005b601680549050811015620003b3576009601682815481106200031d576200031c6200091f565b5b906000526020600020015490806001815401808255809150506001900390600052602060002001600090919091909150556200039c601682815481106200036957620003686200091f565b5b906000526020600020015460076000600281526020019081526020016000206200048960201b620021251790919060201c565b508080620003aa906200097d565b915050620002f6565b5050620009ca565b600033905090565b6000600660009054906101000a900473ffffffffffffffffffffffffffffffffffffffff16905081600660006101000a81548173ffffffffffffffffffffffffffffffffffffffff021916908373ffffffffffffffffffffffffffffffffffffffff1602179055508173ffffffffffffffffffffffffffffffffffffffff168173ffffffffffffffffffffffffffffffffffffffff167f8be0079c531659141344cd1fd0a4f28419497f9722a3daafe3b4186f6b6457e060405160405180910390a35050565b6000620004a3836000018360001b620004ab60201b60201c565b905092915050565b6000620004bf83836200052560201b60201c565b6200051a5782600001829080600181540180825580915050600190039060005260206000200160009091909190915055826000018054905083600101600084815260200190815260200160002081905550600190506200051f565b600090505b92915050565b600080836001016000848152602001908152602001600020541415905092915050565b8280548282559060005260206000209081019282156200058c579160200282015b828111156200058b578251829060ff1690559160200191906001019062000569565b5b5090506200059b91906200059f565b5090565b5b80821115620005ba576000816000905550600101620005a0565b5090565b600081519050919050565b7f4e487b7100000000000000000000000000000000000000000000000000000000600052604160045260246000fd5b7f4e487b7100000000000000000000000000000000000000000000000000000000600052602260045260246000fd5b600060028204905060018216806200064057607f821691505b602082108103620006565762000655620005f8565b5b50919050565b60008190508160005260206000209050919050565b60006020601f8301049050919050565b600082821b905092915050565b600060088302620006c07fffffffffffffffffffffffffffffffffffffffffffffffffffffffffffffffff8262000681565b620006cc868362000681565b95508019841693508086168417925050509392505050565b6000819050919050565b6000819050919050565b600062000719620007136200070d84620006e4565b620006ee565b620006e4565b9050919050565b6000819050919050565b6200073583620006f8565b6200074d620007448262000720565b8484546200068e565b825550505050565b600090565b6200076462000755565b620007718184846200072a565b505050565b5b8181101562000799576200078d6000826200075a565b60018101905062000777565b5050565b601f821115620007e857620007b2816200065c565b620007bd8462000671565b81016020851015620007cd578190505b620007e5620007dc8562000671565b83018262000776565b50505b505050565b600082821c905092915050565b60006200080d60001984600802620007ed565b1980831691505092915050565b6000620008288383620007fa565b9150826002028217905092915050565b6200084382620005be565b67ffffffffffffffff8111156200085f576200085e620005c9565b5b6200086b825462000627565b620008788282856200079d565b600060209050601f831160018114620008b057600084156200089b578287015190505b620008a785826200081a565b86555062000917565b601f198416620008c0866200065c565b60005b82811015620008ea57848901518255600182019150602085019450602081019050620008c3565b868310156200090a578489015162000906601f891682620007fa565b8355505b6001600288020188555050505b505050505050565b7f4e487b7100000000000000000000000000000000000000000000000000000000600052603260045260246000fd5b7f4e487b7100000000000000000000000000000000000000000000000000000000600052601160045260246000fd5b60006200098a82620006e4565b91507fffffffffffffffffffffffffffffffffffffffffffffffffffffffffffffffff8203620009bf57620009be6200094e565b5b600182019050919050565b614c0d80620009da6000396000f3fe60806040526004361061027d5760003560e01c80637a0101a21161014f578063add337e0116100c1578063d5abeb011161007a578063d5abeb01146109c8578063d9db43be146109f3578063e222c7f914610a0f578063e985e9c514610a26578063ee14908d14610a63578063f2fde38b14610a8e5761027d565b8063add337e0146108ba578063b6250cd0146108e3578063b88d4fde1461090c578063bc8893b414610935578063c87b56dd14610960578063cfc86f7b1461099d5761027d565b80638da5cb5b116101135780638da5cb5b146107a557806395d89b41146107d0578063997ce919146107fb5780639d720113146108385780639f442f9f14610854578063a22cb465146108915761027d565b80637a0101a2146106865780637ef758d4146106b157806383da3150146106ee5780638777ae9e1461072b5780638c4c1bdd146107685761027d565b806334393743116101f35780636352211e116101ac5780636352211e1461057657806366a43d78146105b357806370a08231146105de578063715018a61461061b5780637501f7411461063257806377f40eba1461065d5761027d565b8063343937431461049b5780633950891f146104b25780633ccfd60b146104ef57806342842e0e1461050657806353135ca01461052f57806357f6687c1461055a5761027d565b80630fc92096116102455780630fc920961461037b5780631f283fc2146103b857806322212e2b146103f557806323b872dd1461042057806328d7b2761461044957806330176e13146104725761027d565b806301ffc9a71461028257806306fdde03146102bf578063081812fc146102ea578063095ea7b3146103275780630adf9acf14610350575b600080fd5b34801561028e57600080fd5b506102a960048036038101906102a491906133c1565b610ab7565b6040516102b69190613409565b60405180910390f35b3480156102cb57600080fd5b506102d4610b99565b6040516102e191906134b4565b60405180910390f35b3480156102f657600080fd5b50610311600480360381019061030c919061350c565b610c2b565b60405161031e919061357a565b60405180910390f35b34801561033357600080fd5b5061034e600480360381019061034991906135c1565b610c71565b005b34801561035c57600080fd5b50610365610d88565b6040516103729190613610565b60405180910390f35b34801561038757600080fd5b506103a2600480360381019061039d9190613690565b610d8e565b6040516103af9190613409565b60405180910390f35b3480156103c457600080fd5b506103df60048036038101906103da919061350c565b610e0d565b6040516103ec9190613610565b60405180910390f35b34801561040157600080fd5b5061040a610e31565b6040516104179190613709565b60405180910390f35b34801561042c57600080fd5b5061044760048036038101906104429190613724565b610e37565b005b34801561045557600080fd5b50610470600480360381019061046b91906137a3565b610e97565b005b34801561047e57600080fd5b5061049960048036038101906104949190613900565b610ea9565b005b3480156104a757600080fd5b506104b0610ec4565b005b3480156104be57600080fd5b506104d960048036038101906104d49190613949565b610ef8565b6040516104e69190613610565b60405180910390f35b3480156104fb57600080fd5b50610504610f10565b005b34801561051257600080fd5b5061052d60048036038101906105289190613724565b610f6a565b005b34801561053b57600080fd5b50610544610f8a565b6040516105519190613409565b60405180910390f35b610574600480360381019061056f9190613976565b610f9d565b005b34801561058257600080fd5b5061059d6004803603810190610598919061350c565b6113d3565b6040516105aa919061357a565b60405180910390f35b3480156105bf57600080fd5b506105c8611459565b6040516105d59190613610565b60405180910390f35b3480156105ea57600080fd5b5061060560048036038101906106009190613949565b61145f565b6040516106129190613610565b60405180910390f35b34801561062757600080fd5b50610630611516565b005b34801561063e57600080fd5b5061064761152a565b6040516106549190613610565b60405180910390f35b34801561066957600080fd5b50610684600480360381019061067f919061350c565b611530565b005b34801561069257600080fd5b5061069b611542565b6040516106a891906134b4565b60405180910390f35b3480156106bd57600080fd5b506106d860048036038101906106d3919061350c565b6115d0565b6040516106e59190613409565b60405180910390f35b3480156106fa57600080fd5b50610715600480360381019061071091906139ea565b6115f0565b6040516107229190613610565b60405180910390f35b34801561073757600080fd5b50610752600480360381019061074d919061350c565b61161f565b60405161075f9190613610565b60405180910390f35b34801561077457600080fd5b5061078f600480360381019061078a919061350c565b611643565b60405161079c9190613610565b60405180910390f35b3480156107b157600080fd5b506107ba611667565b6040516107c7919061357a565b60405180910390f35b3480156107dc57600080fd5b506107e5611691565b6040516107f291906134b4565b60405180910390f35b34801561080757600080fd5b50610822600480360381019061081d919061350c565b611723565b60405161082f9190613610565b60405180910390f35b610852600480360381019061084d9190613976565b611747565b005b34801561086057600080fd5b5061087b6004803603810190610876919061350c565b611aee565b6040516108889190613610565b60405180910390f35b34801561089d57600080fd5b506108b860048036038101906108b39190613a56565b611b12565b005b3480156108c657600080fd5b506108e160048036038101906108dc919061350c565b611b28565b005b3480156108ef57600080fd5b5061090a6004803603810190610905919061350c565b611b3a565b005b34801561091857600080fd5b50610933600480360381019061092e9190613b37565b611b4c565b005b34801561094157600080fd5b5061094a611bae565b6040516109579190613409565b60405180910390f35b34801561096c57600080fd5b506109876004803603810190610982919061350c565b611bc1565b60405161099491906134b4565b60405180910390f35b3480156109a957600080fd5b506109b2611bf2565b6040516109bf91906134b4565b60405180910390f35b3480156109d457600080fd5b506109dd611c80565b6040516109ea9190613610565b60405180910390f35b610a0d6004803603810190610a0891906139ea565b611c86565b005b348015610a1b57600080fd5b50610a24611fd4565b005b348015610a3257600080fd5b50610a4d6004803603810190610a489190613bba565b612008565b604051610a5a9190613409565b60405180910390f35b348015610a6f57600080fd5b50610a7861209c565b604051610a859190613610565b60405180910390f35b348015610a9a57600080fd5b50610ab56004803603810190610ab09190613949565b6120a2565b005b60007f80ac58cd000000000000000000000000000000000000000000000000000000007bffffffffffffffffffffffffffffffffffffffffffffffffffffffff1916827bffffffffffffffffffffffffffffffffffffffffffffffffffffffff19161480610b8257507f5b5e139f000000000000000000000000000000000000000000000000000000007bffffffffffffffffffffffffffffffffffffffffffffffffffffffff1916827bffffffffffffffffffffffffffffffffffffffffffffffffffffffff1916145b80610b925750610b918261213f565b5b9050919050565b606060008054610ba890613c29565b80601f0160208091040260200160405190810160405280929190818152602001828054610bd490613c29565b8015610c215780601f10610bf657610100808354040283529160200191610c21565b820191906000526020600020905b815481529060010190602001808311610c0457829003601f168201915b5050505050905090565b6000610c36826121a9565b6004600083815260200190815260200160002060009054906101000a900473ffffffffffffffffffffffffffffffffffffffff169050919050565b6000610c7c826113d3565b90508073ffffffffffffffffffffffffffffffffffffffff168373ffffffffffffffffffffffffffffffffffffffff1603610cec576040517f08c379a0000000000000000000000000000000000000000000000000000000008152600401610ce390613ccc565b60405180910390fd5b8073ffffffffffffffffffffffffffffffffffffffff16610d0b6121f4565b73ffffffffffffffffffffffffffffffffffffffff161480610d3a5750610d3981610d346121f4565b612008565b5b610d79576040517f08c379a0000000000000000000000000000000000000000000000000000000008152600401610d7090613d5e565b60405180910390fd5b610d8383836121fc565b505050565b60115481565b6000610e04838380806020026020016040519081016040528093929190818152602001838360200280828437600081840152601f19601f8201169050808301925050505050505060145486604051602001610de99190613dc6565b604051602081830303815290604052805190602001206122b5565b90509392505050565b60098181548110610e1d57600080fd5b906000526020600020016000915090505481565b60145481565b610e48610e426121f4565b826122cc565b610e87576040517f08c379a0000000000000000000000000000000000000000000000000000000008152600401610e7e90613e53565b60405180910390fd5b610e92838383612361565b505050565b610e9f61265a565b8060148190555050565b610eb161265a565b80600c9081610ec0919061401f565b5050565b610ecc61265a565b600d60009054906101000a900460ff1615600d60006101000a81548160ff021916908315150217905550565b600b6020528060005260406000206000915090505481565b610f1861265a565b60004790504790503373ffffffffffffffffffffffffffffffffffffffff166108fc829081150290604051600060405180830381858888f19350505050158015610f66573d6000803e3d6000fd5b5050565b610f8583838360405180602001604052806000815250611b4c565b505050565b600d60009054906101000a900460ff1681565b3273ffffffffffffffffffffffffffffffffffffffff163373ffffffffffffffffffffffffffffffffffffffff1614611002576040517f875fdad700000000000000000000000000000000000000000000000000000000815260040160405180910390fd5b6000831180156110145750600f548311155b611053576040517f08c379a000000000000000000000000000000000000000000000000000000000815260040161104a9061413d565b60405180910390fd5b8261106f600760008781526020019081526020016000206126d8565b10156110b0576040517f08c379a00000000000000000000000000000000000000000000000000000000081526004016110a7906141cf565b60405180910390fd5b611124828280806020026020016040519081016040528093929190818152602001838360200280828437600081840152601f19601f82011690508083019250505050505050601454336040516020016111099190613dc6565b604051602081830303815290604052805190602001206122b5565b611163576040517f08c379a000000000000000000000000000000000000000000000000000000000815260040161115a9061423b565b60405180910390fd5b600d60009054906101000a900460ff166111a9576040517fe3c26abe00000000000000000000000000000000000000000000000000000000815260040160405180910390fd5b600080600b60003373ffffffffffffffffffffffffffffffffffffffff1673ffffffffffffffffffffffffffffffffffffffff16815260200190815260200160002054905060008103611200576010549150611264565b600181036112115760009150611263565b600281101580156112225750600185145b15611231576010549150611262565b60028110158015611243575060038511155b15611252576011549150611261565b600281106112605760125491505b5b5b5b5b813410156112a7576040517f08c379a000000000000000000000000000000000000000000000000000000000815260040161129e906142a7565b60405180910390fd5b60005b858110156113735760006112d76112d2600760008b81526020019081526020016000206126d8565b6126ed565b9050600061130082600760008c815260200190815260200160002061272d90919063ffffffff16565b905061132781600760008c815260200190815260200160002061274790919063ffffffff16565b506113323382612761565b60016008600083815260200190815260200160002060006101000a81548160ff0219169083151502179055505050808061136b906142f6565b9150506112aa565b506001600b60003373ffffffffffffffffffffffffffffffffffffffff1673ffffffffffffffffffffffffffffffffffffffff16815260200190815260200160002060008282546113c4919061433e565b92505081905550505050505050565b6000806113df8361297e565b9050600073ffffffffffffffffffffffffffffffffffffffff168173ffffffffffffffffffffffffffffffffffffffff1603611450576040517f08c379a0000000000000000000000000000000000000000000000000000000008152600401611447906143be565b60405180910390fd5b80915050919050565b60125481565b60008073ffffffffffffffffffffffffffffffffffffffff168273ffffffffffffffffffffffffffffffffffffffff16036114cf576040517f08c379a00000000000000000000000000000000000000000000000000000000081526004016114c690614450565b60405180910390fd5b600360008373ffffffffffffffffffffffffffffffffffffffff1673ffffffffffffffffffffffffffffffffffffffff168152602001908152602001600020549050919050565b61151e61265a565b61152860006129bb565b565b600f5481565b61153861265a565b8060118190555050565b6013805461154f90613c29565b80601f016020809104026020016040519081016040528092919081815260200182805461157b90613c29565b80156115c85780601f1061159d576101008083540402835291602001916115c8565b820191906000526020600020905b8154815290600101906020018083116115ab57829003601f168201915b505050505081565b60086020528060005260406000206000915054906101000a900460ff1681565b6000611617826007600086815260200190815260200160002061272d90919063ffffffff16565b905092915050565b600a818154811061162f57600080fd5b906000526020600020016000915090505481565b6016818154811061165357600080fd5b906000526020600020016000915090505481565b6000600660009054906101000a900473ffffffffffffffffffffffffffffffffffffffff16905090565b6060600180546116a090613c29565b80601f01602080910402602001604051908101604052809291908181526020018280546116cc90613c29565b80156117195780601f106116ee57610100808354040283529160200191611719565b820191906000526020600020905b8154815290600101906020018083116116fc57829003601f168201915b5050505050905090565b6000611740600760008481526020019081526020016000206126d8565b9050919050565b3273ffffffffffffffffffffffffffffffffffffffff163373ffffffffffffffffffffffffffffffffffffffff16146117ac576040517f875fdad700000000000000000000000000000000000000000000000000000000815260040160405180910390fd5b6000831180156117be5750600f548311155b6117fd576040517f08c379a00000000000000000000000000000000000000000000000000000000081526004016117f49061413d565b60405180910390fd5b82611819600760008781526020019081526020016000206126d8565b101561185a576040517f08c379a0000000000000000000000000000000000000000000000000000000008152600401611851906141cf565b60405180910390fd5b6118ce828280806020026020016040519081016040528093929190818152602001838360200280828437600081840152601f19601f82011690508083019250505050505050601454336040516020016118b39190613dc6565b604051602081830303815290604052805190602001206122b5565b61190d576040517f08c379a00000000000000000000000000000000000000000000000000000000081526004016119049061423b565b60405180910390fd5b600d60009054906101000a900460ff16611953576040517fe3c26abe00000000000000000000000000000000000000000000000000000000815260040160405180910390fd5b600060018403611967576010549050611980565b6003841161197957601154905061197f565b60125490505b5b803410156119c3576040517f08c379a00000000000000000000000000000000000000000000000000000000081526004016119ba906142a7565b60405180910390fd5b60005b84811015611a8f5760006119f36119ee600760008a81526020019081526020016000206126d8565b6126ed565b90506000611a1c82600760008b815260200190815260200160002061272d90919063ffffffff16565b9050611a4381600760008b815260200190815260200160002061274790919063ffffffff16565b50611a4e3382612761565b60016008600083815260200190815260200160002060006101000a81548160ff02191690831515021790555050508080611a87906142f6565b9150506119c6565b506001600b60003373ffffffffffffffffffffffffffffffffffffffff1673ffffffffffffffffffffffffffffffffffffffff1681526020019081526020016000206000828254611ae0919061433e565b925050819055505050505050565b60158181548110611afe57600080fd5b906000526020600020016000915090505481565b611b24611b1d6121f4565b8383612a81565b5050565b611b3061265a565b8060128190555050565b611b4261265a565b8060108190555050565b611b5d611b576121f4565b836122cc565b611b9c576040517f08c379a0000000000000000000000000000000000000000000000000000000008152600401611b9390613e53565b60405180910390fd5b611ba884848484612bed565b50505050565b600d60019054906101000a900460ff1681565b6060611bcc82612c49565b604051602001611bdc9190614590565b6040516020818303038152906040529050919050565b600c8054611bff90613c29565b80601f0160208091040260200160405190810160405280929190818152602001828054611c2b90613c29565b8015611c785780601f10611c4d57610100808354040283529160200191611c78565b820191906000526020600020905b815481529060010190602001808311611c5b57829003601f168201915b505050505081565b600e5481565b3273ffffffffffffffffffffffffffffffffffffffff163373ffffffffffffffffffffffffffffffffffffffff1614611ceb576040517f875fdad700000000000000000000000000000000000000000000000000000000815260040160405180910390fd5b600081118015611cfd5750600f548111155b611d3c576040517f08c379a0000000000000000000000000000000000000000000000000000000008152600401611d339061413d565b60405180910390fd5b80611d58600760008581526020019081526020016000206126d8565b1015611d99576040517f08c379a0000000000000000000000000000000000000000000000000000000008152600401611d90906141cf565b60405180910390fd5b600d60019054906101000a900460ff16611ddf576040517fc7d08f0400000000000000000000000000000000000000000000000000000000815260040160405180910390fd5b600060018203611df3576010549050611e0c565b60038211611e05576011549050611e0b565b60125490505b5b80341015611e4f576040517f08c379a0000000000000000000000000000000000000000000000000000000008152600401611e46906142a7565b60405180910390fd5b60005b82811015611f77576000611e7f611e7a600760008881526020019081526020016000206126d8565b6126ed565b90506000611ea8826007600089815260200190815260200160002061272d90919063ffffffff16565b9050611ecf816007600089815260200190815260200160002061274790919063ffffffff16565b50611eda3382612d17565b803373ffffffffffffffffffffffffffffffffffffffff16600073ffffffffffffffffffffffffffffffffffffffff167fddf252ad1be2c89b69c2b068fc378daa952ba7f163c4a11628f55a4df523b3ef60405160405180910390a460016008600083815260200190815260200160002060006101000a81548160ff02191690831515021790555050508080611f6f906142f6565b915050611e52565b506001600b60003373ffffffffffffffffffffffffffffffffffffffff1673ffffffffffffffffffffffffffffffffffffffff1681526020019081526020016000206000828254611fc8919061433e565b92505081905550505050565b611fdc61265a565b600d60019054906101000a900460ff1615600d60016101000a81548160ff021916908315150217905550565b6000600560008473ffffffffffffffffffffffffffffffffffffffff1673ffffffffffffffffffffffffffffffffffffffff16815260200190815260200160002060008373ffffffffffffffffffffffffffffffffffffffff1673ffffffffffffffffffffffffffffffffffffffff16815260200190815260200160002060009054906101000a900460ff16905092915050565b60105481565b6120aa61265a565b600073ffffffffffffffffffffffffffffffffffffffff168173ffffffffffffffffffffffffffffffffffffffff1603612119576040517f08c379a00000000000000000000000000000000000000000000000000000000081526004016121109061462f565b60405180910390fd5b612122816129bb565b50565b6000612137836000018360001b612d35565b905092915050565b60007f01ffc9a7000000000000000000000000000000000000000000000000000000007bffffffffffffffffffffffffffffffffffffffffffffffffffffffff1916827bffffffffffffffffffffffffffffffffffffffffffffffffffffffff1916149050919050565b6121b281612da5565b6121f1576040517f08c379a00000000000000000000000000000000000000000000000000000000081526004016121e8906143be565b60405180910390fd5b50565b600033905090565b816004600083815260200190815260200160002060006101000a81548173ffffffffffffffffffffffffffffffffffffffff021916908373ffffffffffffffffffffffffffffffffffffffff160217905550808273ffffffffffffffffffffffffffffffffffffffff1661226f836113d3565b73ffffffffffffffffffffffffffffffffffffffff167f8c5be1e5ebec7d5bd14f71427d1e84f3dd0314c0f7b2291e5b200ac8c7c3b92560405160405180910390a45050565b6000826122c28584612de6565b1490509392505050565b6000806122d8836113d3565b90508073ffffffffffffffffffffffffffffffffffffffff168473ffffffffffffffffffffffffffffffffffffffff16148061231a57506123198185612008565b5b8061235857508373ffffffffffffffffffffffffffffffffffffffff1661234084610c2b565b73ffffffffffffffffffffffffffffffffffffffff16145b91505092915050565b8273ffffffffffffffffffffffffffffffffffffffff16612381826113d3565b73ffffffffffffffffffffffffffffffffffffffff16146123d7576040517f08c379a00000000000000000000000000000000000000000000000000000000081526004016123ce906146c1565b60405180910390fd5b600073ffffffffffffffffffffffffffffffffffffffff168273ffffffffffffffffffffffffffffffffffffffff1603612446576040517f08c379a000000000000000000000000000000000000000000000000000000000815260040161243d90614753565b60405180910390fd5b6124538383836001612e3c565b8273ffffffffffffffffffffffffffffffffffffffff16612473826113d3565b73ffffffffffffffffffffffffffffffffffffffff16146124c9576040517f08c379a00000000000000000000000000000000000000000000000000000000081526004016124c0906146c1565b60405180910390fd5b6004600082815260200190815260200160002060006101000a81549073ffffffffffffffffffffffffffffffffffffffff02191690556001600360008573ffffffffffffffffffffffffffffffffffffffff1673ffffffffffffffffffffffffffffffffffffffff168152602001908152602001600020600082825403925050819055506001600360008473ffffffffffffffffffffffffffffffffffffffff1673ffffffffffffffffffffffffffffffffffffffff16815260200190815260200160002060008282540192505081905550816002600083815260200190815260200160002060006101000a81548173ffffffffffffffffffffffffffffffffffffffff021916908373ffffffffffffffffffffffffffffffffffffffff160217905550808273ffffffffffffffffffffffffffffffffffffffff168473ffffffffffffffffffffffffffffffffffffffff167fddf252ad1be2c89b69c2b068fc378daa952ba7f163c4a11628f55a4df523b3ef60405160405180910390a46126558383836001612e42565b505050565b6126626121f4565b73ffffffffffffffffffffffffffffffffffffffff16612680611667565b73ffffffffffffffffffffffffffffffffffffffff16146126d6576040517f08c379a00000000000000000000000000000000000000000000000000000000081526004016126cd906147bf565b60405180910390fd5b565b60006126e682600001612e48565b9050919050565b6000814233604051602001612703929190614800565b6040516020818303038152906040528051906020012060001c612726919061485b565b9050919050565b600061273c8360000183612e59565b60001c905092915050565b6000612759836000018360001b612e84565b905092915050565b600073ffffffffffffffffffffffffffffffffffffffff168273ffffffffffffffffffffffffffffffffffffffff16036127d0576040517f08c379a00000000000000000000000000000000000000000000000000000000081526004016127c7906148d8565b60405180910390fd5b6127d981612da5565b15612819576040517f08c379a000000000000000000000000000000000000000000000000000000000815260040161281090614944565b60405180910390fd5b612827600083836001612e3c565b61283081612da5565b15612870576040517f08c379a000000000000000000000000000000000000000000000000000000000815260040161286790614944565b60405180910390fd5b6001600360008473ffffffffffffffffffffffffffffffffffffffff1673ffffffffffffffffffffffffffffffffffffffff16815260200190815260200160002060008282540192505081905550816002600083815260200190815260200160002060006101000a81548173ffffffffffffffffffffffffffffffffffffffff021916908373ffffffffffffffffffffffffffffffffffffffff160217905550808273ffffffffffffffffffffffffffffffffffffffff16600073ffffffffffffffffffffffffffffffffffffffff167fddf252ad1be2c89b69c2b068fc378daa952ba7f163c4a11628f55a4df523b3ef60405160405180910390a461297a600083836001612e42565b5050565b60006002600083815260200190815260200160002060009054906101000a900473ffffffffffffffffffffffffffffffffffffffff169050919050565b6000600660009054906101000a900473ffffffffffffffffffffffffffffffffffffffff16905081600660006101000a81548173ffffffffffffffffffffffffffffffffffffffff021916908373ffffffffffffffffffffffffffffffffffffffff1602179055508173ffffffffffffffffffffffffffffffffffffffff168173ffffffffffffffffffffffffffffffffffffffff167f8be0079c531659141344cd1fd0a4f28419497f9722a3daafe3b4186f6b6457e060405160405180910390a35050565b8173ffffffffffffffffffffffffffffffffffffffff168373ffffffffffffffffffffffffffffffffffffffff1603612aef576040517f08c379a0000000000000000000000000000000000000000000000000000000008152600401612ae6906149b0565b60405180910390fd5b80600560008573ffffffffffffffffffffffffffffffffffffffff1673ffffffffffffffffffffffffffffffffffffffff16815260200190815260200160002060008473ffffffffffffffffffffffffffffffffffffffff1673ffffffffffffffffffffffffffffffffffffffff16815260200190815260200160002060006101000a81548160ff0219169083151502179055508173ffffffffffffffffffffffffffffffffffffffff168373ffffffffffffffffffffffffffffffffffffffff167f17307eab39ab6107e8899845ad3d59bd9653f200f220920489ca2b5937696c3183604051612be09190613409565b60405180910390a3505050565b612bf8848484612361565b612c0484848484612f98565b612c43576040517f08c379a0000000000000000000000000000000000000000000000000000000008152600401612c3a90614a42565b60405180910390fd5b50505050565b606060006001612c588461311f565b01905060008167ffffffffffffffff811115612c7757612c766137d5565b5b6040519080825280601f01601f191660200182016040528015612ca95781602001600182028036833780820191505090505b509050600082602001820190505b600115612d0c578080600190039150507f3031323334353637383961626364656600000000000000000000000000000000600a86061a8153600a8581612d0057612cff61482c565b5b04945060008503612cb7575b819350505050919050565b612d31828260405180602001604052806000815250613272565b5050565b6000612d4183836132cd565b612d9a578260000182908060018154018082558091505060019003906000526020600020016000909190919091505582600001805490508360010160008481526020019081526020016000208190555060019050612d9f565b600090505b92915050565b60008073ffffffffffffffffffffffffffffffffffffffff16612dc78361297e565b73ffffffffffffffffffffffffffffffffffffffff1614159050919050565b60008082905060005b8451811015612e3157612e1c82868381518110612e0f57612e0e614a62565b5b60200260200101516132f0565b91508080612e29906142f6565b915050612def565b508091505092915050565b50505050565b50505050565b600081600001805490509050919050565b6000826000018281548110612e7157612e70614a62565b5b9060005260206000200154905092915050565b60008083600101600084815260200190815260200160002054905060008114612f8c576000600182612eb69190614a91565b9050600060018660000180549050612ece9190614a91565b9050818114612f3d576000866000018281548110612eef57612eee614a62565b5b9060005260206000200154905080876000018481548110612f1357612f12614a62565b5b90600052602060002001819055508387600101600083815260200190815260200160002081905550505b85600001805480612f5157612f50614ac5565b5b600190038181906000526020600020016000905590558560010160008681526020019081526020016000206000905560019350505050612f92565b60009150505b92915050565b6000612fb98473ffffffffffffffffffffffffffffffffffffffff1661331b565b15613112578373ffffffffffffffffffffffffffffffffffffffff1663150b7a02612fe26121f4565b8786866040518563ffffffff1660e01b81526004016130049493929190614b49565b6020604051808303816000875af192505050801561304057506040513d601f19601f8201168201806040525081019061303d9190614baa565b60015b6130c2573d8060008114613070576040519150601f19603f3d011682016040523d82523d6000602084013e613075565b606091505b5060008151036130ba576040517f08c379a00000000000000000000000000000000000000000000000000000000081526004016130b190614a42565b60405180910390fd5b805181602001fd5b63150b7a0260e01b7bffffffffffffffffffffffffffffffffffffffffffffffffffffffff1916817bffffffffffffffffffffffffffffffffffffffffffffffffffffffff191614915050613117565b600190505b949350505050565b600080600090507a184f03e93ff9f4daa797ed6e38ed64bf6a1f010000000000000000831061317d577a184f03e93ff9f4daa797ed6e38ed64bf6a1f01000000000000000083816131735761317261482c565b5b0492506040810190505b6d04ee2d6d415b85acef810000000083106131ba576d04ee2d6d415b85acef810000000083816131b0576131af61482c565b5b0492506020810190505b662386f26fc1000083106131e957662386f26fc1000083816131df576131de61482c565b5b0492506010810190505b6305f5e1008310613212576305f5e10083816132085761320761482c565b5b0492506008810190505b612710831061323757612710838161322d5761322c61482c565b5b0492506004810190505b6064831061325a57606483816132505761324f61482c565b5b0492506002810190505b600a8310613269576001810190505b80915050919050565b61327c8383612761565b6132896000848484612f98565b6132c8576040517f08c379a00000000000000000000000000000000000000000000000000000000081526004016132bf90614a42565b60405180910390fd5b505050565b600080836001016000848152602001908152602001600020541415905092915050565b600081831061330857613303828461333e565b613313565b613312838361333e565b5b905092915050565b6000808273ffffffffffffffffffffffffffffffffffffffff163b119050919050565b600082600052816020526040600020905092915050565b6000604051905090565b600080fd5b600080fd5b60007fffffffff0000000000000000000000000000000000000000000000000000000082169050919050565b61339e81613369565b81146133a957600080fd5b50565b6000813590506133bb81613395565b92915050565b6000602082840312156133d7576133d661335f565b5b60006133e5848285016133ac565b91505092915050565b60008115159050919050565b613403816133ee565b82525050565b600060208201905061341e60008301846133fa565b92915050565b600081519050919050565b600082825260208201905092915050565b60005b8381101561345e578082015181840152602081019050613443565b60008484015250505050565b6000601f19601f8301169050919050565b600061348682613424565b613490818561342f565b93506134a0818560208601613440565b6134a98161346a565b840191505092915050565b600060208201905081810360008301526134ce818461347b565b905092915050565b6000819050919050565b6134e9816134d6565b81146134f457600080fd5b50565b600081359050613506816134e0565b92915050565b6000602082840312156135225761352161335f565b5b6000613530848285016134f7565b91505092915050565b600073ffffffffffffffffffffffffffffffffffffffff82169050919050565b600061356482613539565b9050919050565b61357481613559565b82525050565b600060208201905061358f600083018461356b565b92915050565b61359e81613559565b81146135a957600080fd5b50565b6000813590506135bb81613595565b92915050565b600080604083850312156135d8576135d761335f565b5b60006135e6858286016135ac565b92505060206135f7858286016134f7565b9150509250929050565b61360a816134d6565b82525050565b60006020820190506136256000830184613601565b92915050565b600080fd5b600080fd5b600080fd5b60008083601f8401126136505761364f61362b565b5b8235905067ffffffffffffffff81111561366d5761366c613630565b5b60208301915083602082028301111561368957613688613635565b5b9250929050565b6000806000604084860312156136a9576136a861335f565b5b60006136b7868287016135ac565b935050602084013567ffffffffffffffff8111156136d8576136d7613364565b5b6136e48682870161363a565b92509250509250925092565b6000819050919050565b613703816136f0565b82525050565b600060208201905061371e60008301846136fa565b92915050565b60008060006060848603121561373d5761373c61335f565b5b600061374b868287016135ac565b935050602061375c868287016135ac565b925050604061376d868287016134f7565b9150509250925092565b613780816136f0565b811461378b57600080fd5b50565b60008135905061379d81613777565b92915050565b6000602082840312156137b9576137b861335f565b5b60006137c78482850161378e565b91505092915050565b600080fd5b7f4e487b7100000000000000000000000000000000000000000000000000000000600052604160045260246000fd5b61380d8261346a565b810181811067ffffffffffffffff8211171561382c5761382b6137d5565b5b80604052505050565b600061383f613355565b905061384b8282613804565b919050565b600067ffffffffffffffff82111561386b5761386a6137d5565b5b6138748261346a565b9050602081019050919050565b82818337600083830152505050565b60006138a361389e84613850565b613835565b9050828152602081018484840111156138bf576138be6137d0565b5b6138ca848285613881565b509392505050565b600082601f8301126138e7576138e661362b565b5b81356138f7848260208601613890565b91505092915050565b6000602082840312156139165761391561335f565b5b600082013567ffffffffffffffff81111561393457613933613364565b5b613940848285016138d2565b91505092915050565b60006020828403121561395f5761395e61335f565b5b600061396d848285016135ac565b91505092915050565b600080600080606085870312156139905761398f61335f565b5b600061399e878288016134f7565b94505060206139af878288016134f7565b935050604085013567ffffffffffffffff8111156139d0576139cf613364565b5b6139dc8782880161363a565b925092505092959194509250565b60008060408385031215613a0157613a0061335f565b5b6000613a0f858286016134f7565b9250506020613a20858286016134f7565b9150509250929050565b613a33816133ee565b8114613a3e57600080fd5b50565b600081359050613a5081613a2a565b92915050565b60008060408385031215613a6d57613a6c61335f565b5b6000613a7b858286016135ac565b9250506020613a8c85828601613a41565b9150509250929050565b600067ffffffffffffffff821115613ab157613ab06137d5565b5b613aba8261346a565b9050602081019050919050565b6000613ada613ad584613a96565b613835565b905082815260208101848484011115613af657613af56137d0565b5b613b01848285613881565b509392505050565b600082601f830112613b1e57613b1d61362b565b5b8135613b2e848260208601613ac7565b91505092915050565b60008060008060808587031215613b5157613b5061335f565b5b6000613b5f878288016135ac565b9450506020613b70878288016135ac565b9350506040613b81878288016134f7565b925050606085013567ffffffffffffffff811115613ba257613ba1613364565b5b613bae87828801613b09565b91505092959194509250565b60008060408385031215613bd157613bd061335f565b5b6000613bdf858286016135ac565b9250506020613bf0858286016135ac565b9150509250929050565b7f4e487b7100000000000000000000000000000000000000000000000000000000600052602260045260246000fd5b60006002820490506001821680613c4157607f821691505b602082108103613c5457613c53613bfa565b5b50919050565b7f4552433732313a20617070726f76616c20746f2063757272656e74206f776e6560008201527f7200000000000000000000000000000000000000000000000000000000000000602082015250565b6000613cb660218361342f565b9150613cc182613c5a565b604082019050919050565b60006020820190508181036000830152613ce581613ca9565b9050919050565b7f4552433732313a20617070726f76652063616c6c6572206973206e6f7420746f60008201527f6b656e206f776e6572206f7220617070726f76656420666f7220616c6c000000602082015250565b6000613d48603d8361342f565b9150613d5382613cec565b604082019050919050565b60006020820190508181036000830152613d7781613d3b565b9050919050565b60008160601b9050919050565b6000613d9682613d7e565b9050919050565b6000613da882613d8b565b9050919050565b613dc0613dbb82613559565b613d9d565b82525050565b6000613dd28284613daf565b60148201915081905092915050565b7f4552433732313a2063616c6c6572206973206e6f7420746f6b656e206f776e6560008201527f72206f7220617070726f76656400000000000000000000000000000000000000602082015250565b6000613e3d602d8361342f565b9150613e4882613de1565b604082019050919050565b60006020820190508181036000830152613e6c81613e30565b9050919050565b60008190508160005260206000209050919050565b60006020601f8301049050919050565b600082821b905092915050565b600060088302613ed57fffffffffffffffffffffffffffffffffffffffffffffffffffffffffffffffff82613e98565b613edf8683613e98565b95508019841693508086168417925050509392505050565b6000819050919050565b6000613f1c613f17613f12846134d6565b613ef7565b6134d6565b9050919050565b6000819050919050565b613f3683613f01565b613f4a613f4282613f23565b848454613ea5565b825550505050565b600090565b613f5f613f52565b613f6a818484613f2d565b505050565b5b81811015613f8e57613f83600082613f57565b600181019050613f70565b5050565b601f821115613fd357613fa481613e73565b613fad84613e88565b81016020851015613fbc578190505b613fd0613fc885613e88565b830182613f6f565b50505b505050565b600082821c905092915050565b6000613ff660001984600802613fd8565b1980831691505092915050565b600061400f8383613fe5565b9150826002028217905092915050565b61402882613424565b67ffffffffffffffff811115614041576140406137d5565b5b61404b8254613c29565b614056828285613f92565b600060209050601f8311600181146140895760008415614077578287015190505b6140818582614003565b8655506140e9565b601f19841661409786613e73565b60005b828110156140bf5784890151825560018201915060208501945060208101905061409a565b868310156140dc57848901516140d8601f891682613fe5565b8355505b6001600288020188555050505b505050505050565b7f496e76616c6964207175616e7469747900000000000000000000000000000000600082015250565b600061412760108361342f565b9150614132826140f1565b602082019050919050565b600060208201905081810360008301526141568161411a565b9050919050565b7f4e6f7420656e6f75676820746f6b656e7320776974682074686973207472616960008201527f74206c6566740000000000000000000000000000000000000000000000000000602082015250565b60006141b960268361342f565b91506141c48261415d565b604082019050919050565b600060208201905081810360008301526141e8816141ac565b9050919050565b7f4e6f74206f6e207468652077686974656c697374000000000000000000000000600082015250565b600061422560148361342f565b9150614230826141ef565b602082019050919050565b6000602082019050818103600083015261425481614218565b9050919050565b7f496e73756666696369656e742045544800000000000000000000000000000000600082015250565b600061429160108361342f565b915061429c8261425b565b602082019050919050565b600060208201905081810360008301526142c081614284565b9050919050565b7f4e487b7100000000000000000000000000000000000000000000000000000000600052601160045260246000fd5b6000614301826134d6565b91507fffffffffffffffffffffffffffffffffffffffffffffffffffffffffffffffff8203614333576143326142c7565b5b600182019050919050565b6000614349826134d6565b9150614354836134d6565b925082820190508082111561436c5761436b6142c7565b5b92915050565b7f4552433732313a20696e76616c696420746f6b656e2049440000000000000000600082015250565b60006143a860188361342f565b91506143b382614372565b602082019050919050565b600060208201905081810360008301526143d78161439b565b9050919050565b7f4552433732313a2061646472657373207a65726f206973206e6f74206120766160008201527f6c6964206f776e65720000000000000000000000000000000000000000000000602082015250565b600061443a60298361342f565b9150614445826143de565b604082019050919050565b600060208201905081810360008301526144698161442d565b9050919050565b600081905092915050565b7f68747470733a2f2f6e667473746f726167652e6c696e6b2f697066732f62616660008201527f79626569656d7772766d71346d786d7a7976357978357534746872646d78717660208201527f7a6832717a636364346f36736d347a69746b3471716e66752f00000000000000604082015250565b60006144fd605983614470565b91506145088261447b565b605982019050919050565b600061451e82613424565b6145288185614470565b9350614538818560208601613440565b80840191505092915050565b7f2e6a736f6e000000000000000000000000000000000000000000000000000000600082015250565b600061457a600583614470565b915061458582614544565b600582019050919050565b600061459b826144f0565b91506145a78284614513565b91506145b28261456d565b915081905092915050565b7f4f776e61626c653a206e6577206f776e657220697320746865207a65726f206160008201527f6464726573730000000000000000000000000000000000000000000000000000602082015250565b600061461960268361342f565b9150614624826145bd565b604082019050919050565b600060208201905081810360008301526146488161460c565b9050919050565b7f4552433732313a207472616e736665722066726f6d20696e636f72726563742060008201527f6f776e6572000000000000000000000000000000000000000000000000000000602082015250565b60006146ab60258361342f565b91506146b68261464f565b604082019050919050565b600060208201905081810360008301526146da8161469e565b9050919050565b7f4552433732313a207472616e7366657220746f20746865207a65726f2061646460008201527f7265737300000000000000000000000000000000000000000000000000000000602082015250565b600061473d60248361342f565b9150614748826146e1565b604082019050919050565b6000602082019050818103600083015261476c81614730565b9050919050565b7f4f776e61626c653a2063616c6c6572206973206e6f7420746865206f776e6572600082015250565b60006147a960208361342f565b91506147b482614773565b602082019050919050565b600060208201905081810360008301526147d88161479c565b9050919050565b6000819050919050565b6147fa6147f5826134d6565b6147df565b82525050565b600061480c82856147e9565b60208201915061481c8284613daf565b6014820191508190509392505050565b7f4e487b7100000000000000000000000000000000000000000000000000000000600052601260045260246000fd5b6000614866826134d6565b9150614871836134d6565b9250826148815761488061482c565b5b828206905092915050565b7f4552433732313a206d696e7420746f20746865207a65726f2061646472657373600082015250565b60006148c260208361342f565b91506148cd8261488c565b602082019050919050565b600060208201905081810360008301526148f1816148b5565b9050919050565b7f4552433732313a20746f6b656e20616c7265616479206d696e74656400000000600082015250565b600061492e601c8361342f565b9150614939826148f8565b602082019050919050565b6000602082019050818103600083015261495d81614921565b9050919050565b7f4552433732313a20617070726f766520746f2063616c6c657200000000000000600082015250565b600061499a60198361342f565b91506149a582614964565b602082019050919050565b600060208201905081810360008301526149c98161498d565b9050919050565b7f4552433732313a207472616e7366657220746f206e6f6e20455243373231526560008201527f63656976657220696d706c656d656e7465720000000000000000000000000000602082015250565b6000614a2c60328361342f565b9150614a37826149d0565b604082019050919050565b60006020820190508181036000830152614a5b81614a1f565b9050919050565b7f4e487b7100000000000000000000000000000000000000000000000000000000600052603260045260246000fd5b6000614a9c826134d6565b9150614aa7836134d6565b9250828203905081811115614abf57614abe6142c7565b5b92915050565b7f4e487b7100000000000000000000000000000000000000000000000000000000600052603160045260246000fd5b600081519050919050565b600082825260208201905092915050565b6000614b1b82614af4565b614b258185614aff565b9350614b35818560208601613440565b614b3e8161346a565b840191505092915050565b6000608082019050614b5e600083018761356b565b614b6b602083018661356b565b614b786040830185613601565b8181036060830152614b8a8184614b10565b905095945050505050565b600081519050614ba481613395565b92915050565b600060208284031215614bc057614bbf61335f565b5b6000614bce84828501614b95565b9150509291505056fea2646970667358221220d9ef2f5ff45005ec512f84f18d5a900b32265a8815909fe9fc47cfeb2155b96c64736f6c6343000811003368747470733a2f2f6e667473746f726167652e6c696e6b2f697066732f62616679626569656d7772766d71346d786d7a7976357978357534746872646d7871767a6832717a636364346f36736d347a69746b3471716e66752f",
  "linkReferences": {},
  "deployedLinkReferences": {}
}